:020000040800F2
:1000000000180020D1130008D5120008D7120008EC
:1000100000000000000000000000000000000000E0
:10002000000000000000000000000000D9120008DD
:100030000000000000000000DB120008DD120008D4
:1000400051140008511400085114000851140008FC
:1000500051140008511400085114000851140008EC
:1000600051140008511400085114000851140008DC
:1000700051140008511400085114000851140008CC
:100080005114000800000000000000005114000896
:100090000000000051140008511400085114000819
:1000A0000000000051140008511400085114000809
:1000B00051140008000000005114000851140008F9
:1000C00010B5064C2378002B07D1054B002B02D02E
:1000D000044800E000BF0123237010BD6800002029
:1000E000000000007C260008044B10B5002B03D054
:1000F0000349044800E000BF10BDC04600000000F6
:100100006C0000207C260008002243088B4274D338
:1001100003098B425FD3030A8B4244D3030B8B4208
:1001200028D3030C8B420DD3FF22090212BA030C11
:100130008B4202D31212090265D0030B8B4219D3F2
:1001400000E0090AC30B8B4201D3CB03C01A524112
:10015000830B8B4201D38B03C01A5241430B8B425A
:1001600001D34B03C01A5241030B8B4201D30B0343
:10017000C01A5241C30A8B4201D3CB02C01A52416A
:10018000830A8B4201D38B02C01A5241430A8B422D
:1001900001D34B02C01A5241030A8B4201D30B0216
:1001A000C01A5241CDD2C3098B4201D3CB01C01A30
:1001B000524183098B4201D38B01C01A524143093A
:1001C0008B4201D34B01C01A524103098B4201D328
:1001D0000B01C01A5241C3088B4201D3CB00C01A95
:1001E000524183088B4201D38B00C01A524143080D
:1001F0008B4201D34B00C01A5241411A00D2014632
:10020000524110467047FFE701B5002000F006F8A4
:1002100002BDC0460029F7D076E770477047C04658
:100220000023C25C0133002AFBD1581E704710B571
:10023000040000F0DBFCFA218900FFF765FF00F005
:1002400069F8012000222100404200F033F800202C
:1002500010BD000010B5064A136810210B4313604F
:100260000020FFF7E4FF00F0E9FF002010BDC046CA
:1002700000200240024A1368013313607047C046F1
:1002800094000020014B18687047C046940000207D
:1002900030B583B00190FFF7F5FF0500019C631CAA
:1002A00000D00134FFF7EEFF401BA042FAD303B0A9
:1002B00030BD000070B5002811DB8408134DC03438
:1002C000A400625903231840C000FC331E0086407E
:1002D000B24389010B4083401343635170BDC0B2E8
:1002E0000F220240083A920806329200084BD318B7
:1002F0005D6803242040C000FF2214008440A54311
:1003000089010A4082402A435A60E7E700E100E0A1
:1003100000ED00E001380A4B98420FD8094A5060BE
:100320000948036A1B021B0AC02109060B4303622A
:100330000023936007331360002070470120FCE71F
:10034000FFFFFF0010E000E000ED00E0F0B5C64662
:1003500000B582B000236EE084683440A446CC68C7
:10036000BC406246144384604468AC434A68120946
:10037000012515409D4025434560C46826408C6892
:10038000BC403443C4604A68D20053D54A4DAE697C
:1003900001242643AE61AD692C400194019C9C0868
:1003A000A51CAD00454EAF5903251D40AD000F26DD
:1003B000AE40B7439026F605B04275D0404EB042ED
:1003C00074D0404EB0426DD00526AE4035003D435E
:1003D0000234A400394EA5513B4C25684246D44313
:1003E0002E0026404A68D20302D5424615432E000D
:1003F000354D2E606D682E0026404A68920302D566
:10040000424615432E00304D6E60AD682E002640EA
:100410004A68D20202D5424615432E002A4DAE60EC
:10042000ED682C404A68920202D542462A431400E5
:10043000254AD46001330A681400DC4038D0012515
:100440009D402A409046F5D04C68022C01D0122CD9
:100450000ED1DC080834A400275807261E40B60039
:100460000F22B24097430A69B24016003E4326501D
:1004700002685F0003242600BE40F64332409446E3
:100480004A681440BC406246144304604C68621ED3
:10049000012A00D860E7112C00D15DE7122C00D0B2
:1004A0006BE759E7022690E700268EE701268CE7E6
:1004B00002B004BC9046F0BD0010024000000140B4
:1004C000000400480008004800040140002A01D14F
:1004D000816270478161FCE770B582B004000368F7
:1004E000DB072BD5B34B5A680C231340042B1DD0CC
:1004F000B04B5A680C231340082B0ED06368012BB5
:1005000041D0002B56D1AB4B1A68AB490A401A6058
:100510001A68AA490A401A603BE0A64B5B68C022F1
:1005200052021340802252029342E7D1A14B1B6832
:100530009B0303D56368002B00D139E223689B0736
:1005400078D59C4B5B680C221A4262D0994B5A6852
:100550000C231340082B53D0E368002B00D18BE011
:10056000944A136801210B431360FFF78BFE0500CB
:10057000904B1B689B0776D4FFF784FE401B022834
:10058000F6D9032017E28B4A116880235B020B43E4
:1005900013606368002B25D0FFF774FE0500854BC0
:1005A0001B689B03CAD4FFF76DFE401B6428F6D975
:1005B000032000E2052B09D07E4B1A687E490A40D1
:1005C0001A601A687D490A401A60E2E7794B196897
:1005D0008022D2020A431A601968802252020A431A
:1005E0001A60D6E7FFF74EFE0500724B1B689B03AF
:1005F000A4D5FFF747FE401B6428F6D90320DAE1B3
:100600006C4B5B68C022520213408022120293425C
:10061000A2D1684B1B689B0704D5E368012B01D06E
:100620000120C8E163490B68F82293432269D20094
:1006300013430B6023681B0744D5E369002B2ED0BE
:100640005C4A536A01210B435362FFF71BFE05000E
:10065000584B5B6A9B0735D4FFF714FE401B0228FA
:10066000F6D90320A7E153490B68F8229343226986
:10067000D20013430B60DDE74E4A136801218B4320
:100680001360FFF7FFFD05004A4B1B689B07D1D5A0
:10069000FFF7F8FD401B0228F6D903208BE1454AFD
:1006A000536A01218B435362FFF7ECFD0500414B78
:1006B0005B6A9B0706D5FFF7E5FD401B0228F6D9CC
:1006C000032078E123685B0700D47FE0394BDB69C6
:1006D000DB001DD4374AD169802040050143D16138
:1006E000D36903400193019B0125354B1B68DB0552
:1006F00010D5A368012B21D0002B36D12D4B1A6ABF
:1007000001218A431A621A6A03318A431A621AE083
:100710000025EAE72A4A116880235B000B43136037
:10072000FFF7B0FD0600264B1B68DB05E1D4FFF7A1
:10073000A9FD801B6428F6D903203CE11D4A136AF9
:1007400001210B431362A368002B24D0FFF79AFD0D
:100750000600184B1B6A9B0736D4FFF793FD801BDE
:10076000184B9842F5D9032025E1052B09D0114BF0
:100770001A6A01218A431A621A6A03318A431A6289
:10078000E1E70C4B1A6A04210A431A621A6A033918
:100790000A431A62D7E7FFF775FD0600054B1B6A8F
:1007A0009B0711D5FFF76EFD801B064B9842F5D9CC
:1007B000032000E100100240FFFFFEFFFFFFFBFFF0
:1007C0000070004088130000012D3AD02368DB063A
:1007D00010D56369012B3AD0053358D1784A536B51
:1007E00004218B435363536BF4318B43A169C900DC
:1007F0000B43536323689B0600D482E0704B5A6816
:100800000C2313400C2B60D06D4B5A680C23134003
:10081000082B53D0236A002B60D0694A516B802388
:100820005B020B435363FFF72DFD0500644B5B6BCD
:10083000DB0366D4FFF726FD401B0228F6D9032010
:10084000B9E05F4AD3695F490B40D361BEE75C4BB7
:100850005A6B04210A435A635A6B03390A435A6399
:10086000FFF710FD0500564B5B6B9B0706D4FFF7A7
:1008700009FD401B0228F6D903209CE050494B6B30
:10088000F8229343A269D20013434B63B2E74C4B67
:100890005A6B04210A435A635A6B03398A435A63D9
:1008A000FFF7F0FC0500464B5B6B9B07A2D5FFF7FB
:1008B000E9FC401B0228F6D903207CE0404B5B6832
:1008C000C022520213409342A4D13D4B5B6BDB0329
:1008D00017D5236A012B14D001206CE0384A536BE2
:1008E00039490B405363FFF7CDFC0500344B5B6B7C
:1008F000DB0306D5FFF7C6FC401B0228F6D9032010
:1009000059E0636A002B55D02D4A51680C220A40E9
:10091000082A52D0022B12D0294A13682B490B40C7
:100920001360FFF7AFFC0400254B1B689B013DD50E
:10093000FFF7A8FC001B0228F6D903203BE0204A61
:10094000136822490B401360FFF79CFC05001C4B09
:100950001B689B0106D5FFF795FC401B0228F6D9C2
:10096000032028E0164BDA6A0F218A43216B0A43E1
:10097000DA625A6816490A40E16AA06A01430A43EA
:100980005A601968802252040A431A60FFF77AFC01
:1009900004000B4B1B689B0106D4FFF773FC001B84
:1009A0000228F6D9032006E0002004E0002002E03F
:1009B000012000E0002002B070BD0120FBE7C0462E
:1009C00000100240FFFFFFEFFFFFFEFFFFFFFFFEF3
:1009D000FF7FC2FF30B589B004AA1F4B180032C890
:1009E00032C2110002680A606A46103313CB13C288
:1009F0001B681360194B5A680C231340082B04D052
:100A00000C2B26D0164809B030BD910C0F2319408D
:100A100004A8445C1149C96A0B406946C95CC023FB
:100A20005B021A4080235B029A4208D0C0235B021B
:100A30009A4209D00A48FFF767FB6043E3E708489A
:100A4000FFF762FB6043DEE70648FFF75DFB6043AC
:100A5000D9E70448D7E7C0469426000800100240B2
:100A600000127A00006CDC0270B505000C00594BD6
:100A70001A68012313408B420BD256490B6801229E
:100A8000934323430B600B681A40A24201D001201C
:100A900070BD2B689B0706D54F4A5368F0218B43E6
:100AA000A9680B4353602B68DB0763D56B68012B88
:100AB00009D0022B28D0032B2CD0474A126892076A
:100AC00005D40120E4E7444A126892037FD54249E5
:100AD0004A680320824313434B60FFF7D3FB0600B1
:100AE0006B68012B1CD0022B28D0032B34D03A4B3F
:100AF0005B680C221A423DD0FFF7C4FB801B374BCA
:100B00009842F4D90320C3E7334A12689201DED435
:100B10000120BDE7304A526BD203D8D40120B7E799
:100B20002D4B5A680C231340042B23D0FFF7AAFB4C
:100B3000801B2A4B9842F3D90320A9E7264B5A6819
:100B40000C231340082B15D0FFF79CFB801B234B75
:100B50009842F3D903209BE71F4B5A680C2313409C
:100B60000C2B07D0FFF78EFB801B1C4B9842F3D950
:100B700003208DE7174B1A6801231340A3420BD9BA
:100B800014490B680122934323430B600B681A40FE
:100B9000A24201D001207BE72B685B0706D50E4AF5
:100BA00053680F490B40E9680B435360FFF712FF8E
:100BB000094B5A6812090F2313400A4AD35CD840E4
:100BC000094B18600020FFF732FB002060E701208E
:100BD0005EE7C0460020024000100240881300007B
:100BE000FFF8FFFFB426000800000020014B186842
:100BF0007047C0460000002010B5FFF7F7FF044B18
:100C00005A68120A07231340024AD35CD84010BD29
:100C100000100240C426000870B504008368026911
:100C2000134342691343C269134301680A68604869
:100C3000024013430B60226853685E490B40E16831
:100C40000B435360A269236A1A4321688B685A4890
:100C5000034013438B602568584B9D4220D0584B6E
:100C60009D4231D0102380221202E16991422FD09F
:100C7000022B00D180E000D86EE0042B00D187E089
:100C8000082B00D092E06168480880231B029C4634
:100C90006044FFF739FA0004000CE860002040E0EF
:100CA000484B1A6B03231340012B09D0002B05D0AE
:100CB000022B07D0032B09D01023D4E70023D2E75F
:100CC0000423D0E70823CEE70023CCE70223CAE7BA
:100CD000022B27D00FD9042B2FD0082B39D16368D2
:100CE000580880235B029C4660446168FFF70CFA59
:100CF00083B200200CE0002B2BD1FFF77DFF4000DA
:100D000063685B08C0186168FFF7FEF983B20020D2
:100D10000F22190091435B10083A13400B432268DD
:100D2000D36070BD63685808274B9C466044616877
:100D3000FFF7EAF983B20020EAE7FFF74BFE400035
:100D400063685B08C0186168FFF7DEF983B20020B2
:100D5000DEE701200023DBE7002B27D1FFF74CFF64
:100D600063685B08C0186168FFF7CEF92368000468
:100D7000000CD8600020D4E761684808134B9C46FB
:100D80006044FFF7C1F90004000CE8600020C8E7E8
:100D9000FFF720FE63685B08C0186168FFF7B4F9CD
:100DA00023680004000CD8600020BAE70120B8E7EF
:100DB000F369FFEFFFCFFFFFFFF4FFFF00380140B3
:100DC00000440040001002400024F40000127A00A9
:100DD000436ADB0706D5026853682C490B40816AD9
:100DE0000B435360436A9B0706D502685368284942
:100DF0000B40C16A0B435360436A5B0706D5026828
:100E0000536824490B40016B0B435360436A1B0733
:100E100006D50268536820490B40416B0B43536071
:100E2000436ADB0606D5026893681C490B40816B58
:100E30000B439360436A9B0606D502689368184982
:100E40000B40C16B0B439360436A5B060BD5026892
:100E5000536814490B40016C0B43536080235B03C0
:100E6000026C9A420AD0436A1B0606D50268536890
:100E70000D490B40816C0B43536070470268536807
:100E80000A490B40416C0B435360ECE7FFFFFDFF49
:100E9000FFFFFEFFFFFFFBFFFF7FFFFFFFEFFFFFF7
:100EA000FFDFFFFFFFFFEFFFFFFFF7FFFFFF9FFFEA
:100EB000F0B5C64600B506000C0017009846069D22
:100EC0003368DB6923401B1B5A425341BB421ED18E
:100ED0006B1CF5D0002D05D0FFF7D4F94346C01A9E
:100EE000A842EDD9326813680B490B401360326891
:100EF0009368A331FF318B43936020236922B3545D
:100F00000132B35448330022F254032000E00020A1
:100F100004BC9046F0BDC0465FFEFFFFF0B585B053
:100F200004000E0017001D006923C35C202B59D15B
:100F300000295AD0002A5AD080235B0182689A4245
:100F400013D06823E35C012B53D068230122E254C1
:100F50000023E36669332032E254FFF793F90390EC
:100F60005023E7520233E7520AE00369002BE8D12D
:100F7000CB07E6D5012036E03378226813850136A9
:100F80005223E35A9BB2002B1CD05222A35A013B9E
:100F90009BB2A3520095039B002280212000FFF703
:100FA00087FF002827D180235B01A2689A42E3D102
:100FB0002369002BE0D13388DB05DB0D2268138524
:100FC0000236DDE70095039B002240212000FFF759
:100FD0006FFF002811D169232022E254013B002237
:100FE000E25400E0022005B0F0BD0120FBE7012043
:100FF000F9E70220F7E70320F5E70320F3E7000015
:1010000030B583B004000023C366FFF73BF9050049
:101010002368174A93420AD020236922A35401323D
:10102000A35448330022E254002003B030BD1B68B3
:101030001B0710D423681B685B07EDD580210D4B7F
:1010400000932B000022C9032000FFF731FF002886
:10105000E2D00320E9E78021064B00930300002241
:1010600089032000FFF724FF0028E3D00320DCE7FA
:1010700000380140FFFFFF0110B5041E30D0692386
:10108000C35C002B22D069232422E2542268136817
:1010900001218B4313602000FFF7BEFD012814D00F
:1010A000636A002B18D1226853680E490B405360C5
:1010B000226893682A218B43936022681368293938
:1010C0000B4313602000FFF79BFF10BD6833002225
:1010D000C25400F0CBF8D6E72000FFF779FEE2E734
:1010E0000120F2E7FFB7FFFF10B588B014220021FE
:1010F00003A800F0D9F9174B59698020C0030143B8
:1011000059615A6902400092009A59698020800210
:10111000014359615A6902400192019A5A6980213A
:10112000C9020A435A615B690B400293029B0A4C55
:10113000002208212000FFF7C9F908230393073B89
:10114000049300230593069303A92000FFF7FEF8FC
:1011500008B010BD001002400004004810B5094856
:10116000094B036096231B02436000238360C36026
:1011700003610C2242618361C36103624362FFF732
:101180007BFF10BD980000200044004000B593B0E4
:101190003022002106A800F087F91022002101A8C2
:1011A00000F082F902230593013B08930F33099362
:1011B00005A8FFF791F907230193002302930393F6
:1011C0000493002101A8FFF74FFC13B000BD0000FD
:1011D00030B589B0FFF73EF8FFF7D8FFFFF784FF7F
:1011E000FFF7BCFFFA2464002000FFF751F80F4D11
:1011F0000A2308220E492800FFF790FE2000FFF77F
:1012000047F80A220B49684600F070F96846FFF774
:1012100007F882B2052369462800FFF77FFE200009
:10122000FFF736F8044800F047F9DBE798000020A4
:10123000CC260008D4260008E026000882B00A4B1D
:10124000996901221143996199690A400092009AB3
:10125000DA69802149050A43DA61DB690B400193B1
:10126000019B02B07047C0460010024010B588B024
:1012700004001422002103A800F016F92268124B82
:101280009A4201D008B010BD104BD9698022920259
:101290001143D961D96911400191019959691143EB
:1012A00059615B691A400292029B094B0393022326
:1012B000049301330693023B0793902003A9C005D2
:1012C000FFF744F8DEE7C04600440040001002404B
:1012D000048000007047FEE77047704710B5FEF7C6
:1012E000C9FF10BD70B50D001600002404E000E039
:1012F00000BF287001340135B442F8DB300070BD06
:1013000070B51600002405E04D1C087800E000BF11
:1013100001342900B442F7DB300070BD10B5030082
:101320000B4A1268002A08D0094A1068C3186A4696
:10133000934206D8064A136010BD054A054911605C
:10134000F2E700F087F80C23036001204042F3E746
:1013500084000020100100200120404270478023BB
:101360009B014B60002070470120704700207047B0
:10137000114B1A6801210A431A605A680F4802404B
:101380005A601A680E4802401A601A680D480240F6
:101390001A605A680C4802405A60DA6A0F20824389
:1013A000DA621A6B094802401A635A6B8A435A631D
:1013B00000229A607047C046001002400CB8FF0837
:1013C000FFFFF6FEFFFFFBFFFFFFC0FF2CFEFFFF4E
:1013D0001348854613480168090E134A914205D106
:1013E0001248134901601348134901601348144916
:1013F000144A002302E0D458C4500433C4188C4269
:10140000F9D3114A114C002301E013600432A242C7
:10141000FBD3FFF7ADFF00F023F8FFF7D9FEFEE79F
:1014200000180020040000001F00000018100240F7
:10143000010000000000014000000000000000204A
:101440006800002094270008680000200C0100209C
:10145000FEE70000014B18687047C04604000020FA
:1014600070B500260C4D0D4C641BA410A64209D18A
:10147000002601F003F90A4D0A4C641BA410A64291
:1014800005D170BDB300EB5898470136EEE7B300C5
:10149000EB5898470136F2E78C2700088C270008A4
:1014A0008C2700089027000803001218934200D1EF
:1014B000704719700133F9E70FB40B4B13B51C6873
:1014C000002C05D0A369002B02D1200000F070F899
:1014D00005AB049AA1682000019300F0E3FA16BC62
:1014E00008BC04B01847C046040000200EB400B584
:1014F0000B499CB01DAB02900690079104910948DE
:10150000094904CB0591006802A9019300F0A4F9F0
:101510000023029A13701CB008BC03B01847C046E1
:10152000FFFFFF7F040000200802FFFF002310B52B
:10153000040003604360836081814366C28103616C
:1015400043618361190008225C30FFF7ADFF054B52
:1015500024626362044BA362044BE362044B236383
:1015600010BDC046E11F0008092000084120000806
:101570006D20000810B5024900F08CF810BDC0467F
:101580007123000870B568254A1E55430E002900D6
:10159000743100F0A1F8041E08D000212A00016077
:1015A00046600C30A0606832FFF77EFF200070BDFF
:1015B000836913B50400002B28D18364C3640365D9
:1015C000134B144A1B6882620193984201D1012394
:1015D0008361200000F020F86060200000F01CF81B
:1015E000A060200000F018F80022E060042160688C
:1015F000FFF79CFF01220921A068FFF797FF022255
:101600001221E068FFF792FF0123A36113BDC046DA
:10161000F426000875150008F8B51C4B07001E6875
:10162000B369002B02D13000FFF7C2FF4836B4681F
:101630007368013B04D53368002B07D03668F6E7A2
:101640000C22A55E002D0DD06834F2E7042138008D
:10165000FFF798FF30600028F0D10C2304003B60B6
:101660002000F8BD20000A4B656625606560A56016
:10167000E36025616561A561082229005C30FFF700
:1016800013FF6563A563A564E564E9E7F426000834
:101690000100FFFFF7B50400070000260191483460
:1016A000002C01D13000FEBD6368A5680093009B4B
:1016B000013B009301D52468F2E7AB89012B08D9DF
:1016C0000E22AB5E013304D029003800019B9847FD
:1016D00006436835EBE70000032370B5CD1C9D433E
:1016E000083506000C2D1ED20C25A9421DD830004D
:1016F00000F011FF254A14682100002919D1244C5B
:101700002368002B03D1300000F058FC2060290032
:10171000300000F053FC431C2BD10C23300033600D
:1017200000F0FAFE03E0002DDFDA0C233360002026
:1017300070BD0B685B1B19D40B2B03D90B60CC1845
:10174000256003E04B688C420DD11360300000F03F
:10175000E3FE200007220B30231D9043C31AE7D07D
:101760005A42E250E4E763600C00EFE70C0049687E
:10177000C3E70323C41C9C43A042E1D0211A3000DC
:1017800000F01CFC431CDBD1C7E7C0468C000020E6
:1017900090000020F0B58E6885B007000C00039221
:1017A00001939E423CD890238A89DB001A4234D0B0
:1017B0000325096923685B1A0293636902985D43F4
:1017C000EB0F5D19019B6D1001331B18AB4200D963
:1017D0001D00530532D529003800FFF77DFF061E96
:1017E00009D10C233B6040230120A28940421343CE
:1017F000A38105B0F0BD029A216900F070FEA389B3
:10180000144A1A4080231343A381029B2661F618D1
:1018100026606561019EED1AA560019B9E4200D97C
:10182000019E32000399206800F062FEA368002048
:101830009B1BA36023689E192660DAE72A00380004
:1018400000F0B6FE061EE0D12169380000F066FE09
:10185000C7E7C0467FFBFFFFF0B5A1B003901D00B6
:101860008B890F0016001B0611D50B69002B0ED1BA
:101870004021FFF731FF38603861002805D10C2383
:10188000039A0138136021B0F0BD40237B6100232F
:1018900008AC6361203363761033A3760795350077
:1018A0002B78002B01D0252B46D1AB1B05930CD0F8
:1018B000320039000398FFF76DFF431C00D1AEE002
:1018C0006269059B9446634463612B78002B00D1C9
:1018D000A5E0012200235242626004A9543252184A
:1018E0006E1C2360E360A3601370A365317805224A
:1018F000534800F0E9FD751C00281FD12268D3066B
:1019000004D5532304A95B1820211970130704D5AB
:10191000532304A95B182B21197033782A2B16D076
:10192000350000210A20E3682A786E1C303A092A23
:101930004ED9002918D010E00135B1E7404B22689C
:10194000C01A01238340134323602E00CEE7079B78
:10195000191D1B680791002B01DB0B9304E05B4210
:10196000E3600223134323602B782E2B0AD16B787C
:101970002A2B35D1079B02351A1D1B680792002BB5
:101980002BDB09932F4E29780322300000F09CFDB9
:10199000002806D04023801B834022680135134372
:1019A00023602978062228486E1C217600F08CFDE1
:1019B00000283CD0254B002B25D10722079B07335D
:1019C0009343083307936369049A9B18636166E73E
:1019D000434301219B183500A6E701235B42D0E772
:1019E00000230A201A000135636029786E1C303903
:1019F000092903D9002BC5D00992C3E7424301232B
:101A000052183500F1E707AB00933A00104B210064
:101A1000039800E000BF0490049B0133D3D1BB893D
:101A20000D985B0600D42EE7012040422BE707AB60
:101A300000933A00064B2100039800F0B7F9EAE75B
:101A4000582700085E2700086227000800000000F1
:101A500095170008936810B5013B9360002B04DADA
:101A60009469A34207DB0A2905D01368581C10604B
:101A70001970080010BD00F0FFFA0100F9E7F8B591
:101A800006000F001400D518AC4201D1002007E079
:101A900021783A003000FFF7DDFF0134431CF3D119
:101AA000F8BD0000F0B5A1B003900F0016001D00B6
:101AB000002805D083690593002B01D1FFF778FD3D
:101AC0007B4B9F425CD1039B5F68BB891B0763D53F
:101AD0003B69002B60D0002308AC63612033637640
:101AE0001033A376079535002B78002B01D0252BDA
:101AF0005CD1AB1B05930CD0320039000398FFF783
:101B0000BEFF431C00D1C4E06269059B9446634458
:101B100063612B78002B00D1BBE0012200235242ED
:101B2000626004A9543252186E1C2360E360A36003
:101B30001370A365317805225E4800F0C5FC751C62
:101B4000002835D12268D30604D5532304A95B1895
:101B500020211970130704D5532304A95B182B21E6
:101B6000197033782A2B2CD0350000210A20E36825
:101B70002A786E1C303A092A64D900292ED026E032
:101B80004D4B9F4202D1039B9F689EE74B4B9F4268
:101B90009BD1039BDF6898E73900039800F0D6FAE1
:101BA000002898D00120404221B0F0BD01359BE7CC
:101BB000404B2268C01A01238340134323602E0048
:101BC000B8E7079B191D1B680791002B01DB0B93DE
:101BD00004E05B42E3600223134323602B782E2B47
:101BE0000AD16B782A2B35D1079B02351A1D1B6849
:101BF0000792002B2BDB0993314E2978032230000A
:101C000000F062FC002806D04023801B834022683D
:101C1000013513432360297806222A486E1C217659
:101C200000F052FC00283AD0274B002B25D1072288
:101C3000079B07339343083307936369049A9B1800
:101C4000636150E7434301219B18350090E701236E
:101C50005B42D0E700230A201A000135636029782F
:101C60006E1C3039092903D9002BC5D00992C3E76E
:101C70004243012352183500F1E707AB00933A00C5
:101C8000124B2100039800E000BF0490049B013335
:101C9000D3D1BB895B0600D584E70D9884E707ABF9
:101CA00000933A00094B2100039800F07FF8ECE71D
:101CB000182700085827000838270008F8260008C9
:101CC0005E27000862270008000000007F1A000855
:101CD000F7B5150001938A680B6900900C009342D8
:101CE00000DA130022002B6043321278002A01D060
:101CF00001332B6023689B0602D52B6802332B60CF
:101D0000062723681F4027D0230043331B785A1E21
:101D100093412268920630D4220001994332009800
:101D2000089EB047431C25D0062320682A68E16836
:101D300003400025042B03D18D1AEB43DB171D4014
:101D4000A3682269934201DD9B1AED180027BD426A
:101D500020D1002010E00137E3682A689B1ABB42BB
:101D6000D2DD22000123193201990098089EB04764
:101D7000431CF0D101204042FEBD3020E118433128
:101D8000087021005A1C45310978A21843320233E9
:101D90001170C1E7220001231A3201990098089EB0
:101DA000B047431CE6D00137D1E70000F0B589B059
:101DB00004920A0043320593039002920A7E0C00BB
:101DC0000E9B6E2A00D186E01FD8632A33D008D834
:101DD000002A00D18CE0582A4DD0250042352A70C7
:101DE00030E0642A01D0692AF7D1196825680A1DF4
:101DF000280629D508681A60002803DA2D23029ADC
:101E0000404213706B4E0A274FE0732A74D008D8F3
:101E10006F2A1FD0702AE0D1202209680A4322606D
:101E200003E0752A16D0782AD7D1220078214532CE
:101E30001170614E22E025001A684235111D1960AB
:101E400013682B70012365E008681A606906D3D512
:101E500000B2D1E719682568081D186008682E06C9
:101E600005D5544E08276F2A1BD00A2719E06D06A6
:101E7000F7D580B2F5E745314E4E0A7018682268F2
:101E8000011D00681960150621D5D30702D520234E
:101E90001A4322601027002803D1202322689A4386
:101EA00022602300002243331A706368A360002B72
:101EB00058DB0422216891432160002854D1029DFF
:101EC000002B5AD02500337842352B7055E055064B
:101ED000DBD580B2D9E71A680D68101D4969186012
:101EE00013682E0601D5196002E06D06FBD5198036
:101EF0000023029D23614FE01A68111D19601568C7
:101F000000216268280000F0DFFA002801D0401BA1
:101F10006060636823610023029A13703CE02369C8
:101F20002A0004990398059DA847431C3ED02368C6
:101F30009B0715D4079BE068984239DA180037E010
:101F400022000123193204990398059EB047431CCF
:101F50002CD00135E368079A9B1AAB42F0DCE9E725
:101F60000025F7E70028ADD0029D3900FEF752F9B1
:101F7000735C013D2B700028F7D1082F09D123682D
:101F8000DB0706D563682269934202DC3023013DFA
:101F90002B70029B5B1B2361059B07AA009321000A
:101FA000049B0398FFF794FE431CB8D101204042E4
:101FB00009B0F0BD692700087A270008002370B532
:101FC000064C050008002360FFF7A8F9431C03D165
:101FD0002368002B00D02B6070BDC0460801002094
:101FE00070B50C000E25495F00F008FB002803DBEC
:101FF000636D1B18636570BDA389024A1340A381FA
:10200000F9E7C046FFEFFFFFF8B51F008B89050019
:102010000C001600DB0505D50E23C95E0022022345
:1020200000F0D2F9A389054A28001340A3813200A9
:102030000E23E15E3B0000F075F8F8BDFFEFFFFFF7
:1020400070B50C000E25495F00F0BEF9A389421C53
:1020500003D1054A1340A38170BD8022520113436E
:10206000A3816065F8E7C046FFEFFFFF10B50E23C0
:10207000C95E00F0E1F810BDF8B505000E001400CF
:10208000002804D08369002B01D1FFF791FA224B7D
:102090009C422DD16C68A369A360A3891B0731D52D
:1020A0002369002B2ED023682269F7B2981A63693E
:1020B000F6B2834205DC2100280000F059F900281F
:1020C00026D1A3680130013BA36023685A1C22601B
:1020D0001F706369834204D0A389DB071AD50A2ED7
:1020E00018D12100280000F043F9002812D00FE099
:1020F0000A4B9C4201D1AC68CDE7094B9C42CAD146
:10210000EC68C8E72100280000F020F80028CAD0B9
:10211000012676423000F8BD18270008382700084D
:10212000F826000870B50500080011000022064CD2
:1021300022601A00FFF7E4F8431C03D12368002B48
:1021400000D02B6070BDC04608010020364B70B532
:102150001D6806000C00002D05D0AB69002B02D1D4
:102160002800FFF725FA314B9C420FD16C680C23F5
:10217000E25E93B219072DD4D90611D409230120A8
:10218000336037331343A381404270BD284B9C42D8
:1021900001D1AC68EBE7274B9C42E8D1EC68E6E75D
:1021A0005B0713D5616B002908D0230044339942A3
:1021B00002D0300000F0B2F9002363632422A38927
:1021C0009343A38100236360236923600823A289CA
:1021D0001343A3812369002B0BD1A0218022A38963
:1021E000890092000B40934203D02100300000F0A0
:1021F00027F90123A289134011D00023A36063694A
:102200005B42A361002023698342BED10C23E25EBE
:102210001306BAD540231343A3810138B5E79207CB
:1022200000D46369A360EDE70400002018270008CC
:1022300038270008F8260008002370B5064C050072
:1022400008002360FFF788F8431C03D12368002BA4
:1022500000D02B6070BDC04608010020F7B58A8908
:1022600005000C00130760D44B68002B04DC0B6CDA
:10227000002B01DC0020FEBDE76A002FFAD000230E
:102280002E682B6080235B01216A1A4034D0606D78
:10229000A3895B0706D56368C01A636B002B01D066
:1022A000236CC01A0200216A00232800E76AB8479D
:1022B000A189431C06D12B681D2B30D82B4ADA404C
:1022C000D3072CD50023636023692360CB0405D595
:1022D000431C02D12B68002B00D16065616B2E601E
:1022E0000029C7D023004433994202D0280000F0CF
:1022F00015F900206063BEE701232800B847431C9E
:10230000C6D12B68002BC3D01D2B01D0162B01D1B9
:102310002E60AFE74023A2891343A381ABE740239C
:102320000B430120A3814042A5E70F69002FA1D0F4
:102330000B680F60DB1B01930023920700D14B69F0
:10234000A360019B002B00DC94E7019B3A00216A0B
:102350002800A66AB047002803DC4023A289134363
:10236000DFE7019B3F181B1A0193EAE701004020B9
:102370000B6970B505000C00002B01D1002070BD69
:10238000002804D08369002B01D1FFF711F90B4B12
:102390009C4209D16C680C22A35E002BEED0210078
:1023A0002800FFF75BFFEAE7054B9C4201D1AC68D0
:1023B000F1E7044B9C42EED1EC68ECE718270008EB
:1023C00038270008F826000870B50500080011003D
:1023D0000022064C22601A00FEF7C8FF431C03D1FE
:1023E0002368002B00D02B6070BDC0460801002080
:1023F00070B50E001D000E23C95E96B014000029B2
:1024000007DA00232B60B3891B0611D48023DB007D
:102410000FE06A4600F006F90028F2DBF022019B8B
:1024200012021340054A9B185A4253412B60EDE7B4
:1024300040230020236016B070BDC04600E0FFFFBF
:10244000F7B502268B8905000C00334206D0230025
:1024500047332360236101236361F7BD01AB6A4603
:10246000FFF7C6FF009907002800FFF735F900289D
:1024700008D10C22A35E9A05EFD4032293431E4396
:10248000A681E4E70F4BAB628023A289206013434F
:10249000A381009B20616361019B002B0DD00E2363
:1024A000E15E280000F0D0F8002806D00322A389BE
:1024B00093431A0001231343A381A0893843A081C9
:1024C000CBE7C04675150008C9B28218904201D109
:1024D0000020704703788B42FBD00130F6E70023E1
:1024E00010B59A4200D110BDCC5CC4540133F8E75A
:1024F00010B5884202D98B18984203D3002307E015
:102500008B5C8354013AFBD210BDCC5CC4540133C4
:102510009A42FAD1F8E770477047000070B505009D
:10252000002910D00C1F2368002B00DAE4182800C3
:10253000FFF7F1FF1D4A1368002B05D1636014609B
:102540002800FFF7E9FF70BDA34209D92168601890
:102550008342F3D118685B6841182160EEE71300ED
:102560005A68002A01D0A242F9D919685818A04225
:102570000BD120680918581819608242E0D1106800
:102580005268411819605A60DAE7A04202D90C2358
:102590002B60D5E721686018824203D11068526829
:1025A0004118216062605C60CAE7C0468C00002070
:1025B000F8B507000D001600002905D11100FFF73E
:1025C0008BF804002000F8BD002A03D1FFF7A6FF16
:1025D0003400F7E700F04AF82C00B042F2D23100A4
:1025E0003800FFF779F8041EECD029003200FFF71D
:1025F00076FF29003800FFF791FFE3E770B505008B
:10260000080011000022064C22601A00FEF76AFE44
:10261000431C03D12368002B00D02B6070BDC04643
:1026200008010020002370B5064C050008001100C9
:102630002360FEF794FE431C03D12368002B00D0D7
:102640002B6070BD08010020002370B5064C05000A
:1026500008002360FEF788FE431C03D12368002B8B
:1026600000D02B6070BDC046080100200B1F1B6806
:10267000181F002B01DA0B58C0187047F8B5C04678
:10268000F8BC08BC9E467047F8B5C046F8BC08BC0C
:042690009E467047AB
:1026940002030405060708090A0B0C0D0E0F10109F
:1026A4000102030405060708090A0B0C0D0E0F109E
:1026B40000000000000000000102030406070809EE
:1026C400000000000102030468656C6C6F0D0000DB
:1026D4006C6F6C202575200D0000000048656C6C43
:1026E4006F2066726F6D207072696E7466000000F0
:1026F40008000020000000000000000000000000AE
:1027040000000000000000000000000000000000C5
:1027140000000000000000000000000000000000B5
:1027240000000000000000000000000000000000A5
:102734000000000000000000000000000000000095
:102744000000000000000000000000000000000085
:1027540000000000232D302B2000686C4C006566BF
:1027640067454647003031323334353637383941DE
:1027740042434445460030313233343536373839F4
:082784006162636465660000F8
:04278C00E900000858
:04279000C10000087C
:1027940000127A000800002000000000182700083A
:1027A40038270008F8260008000000000000000098
:1027B4000000000000000000000000000000000015
:1027C4000000000000000000000000000000000005
:1027D40000000000000000000000000000000000F5
:1027E40000000000000000000000000000000000E5
:0827F4000000000000000000DD
:04000005080013D10B
:00000001FF
